:020000040000FA
:060000000A128A11EE2F26
:100E7C008034C034E034F034F834FC34FE34FF34C5
:100E8C007E088A007F0882000A128A1146270A12FD
:100E9C008A118000840A04087D0603190034FF0AB5
:100EAC000319FE0A4A2FF200F301F4017208F00054
:100EBC00730A622F0310F00CFF3E031D602F7008A5
:100ECC000139F100F10D8312031307087106FD3986
:100EDC00710687000714A630F000F00B732F00008A
:100EEC00831203130710A630F000F00B7B2F0000C9
:100EFC000130F3070318F40A0030F4077408803A41
:100F0C00FF0080307F02031D8D2F08307302031CFD
:100F1C00902F912F5C2F831203130715A630F0002E
:100F2C00F00B962F00008312031307110800831691
:100F3C0003138701831203138701203084002A30A6
:100F4C00F5000408F6000830F700750884008313D8
:100F5C000008F800F50A7608840078088000F60A84
:100F6C00F70BAB2F83120313A801A90183120313F0
:100F7C002808203E8400831300080A128A1159277E
:100F8C000A128A110330F7008A30F6005530F5004A
:100F9C00F50BCE2FF60BCE2FF70BCE2FD52F013016
:100FAC0083120313A8070318A90A0030A9072908FC
:100FBC00803AFF0080307F02031DE62F08302802A4
:100FCC00031CE92FEA2FBC2FB82F0A128A11002814
:100FDC0083133230FD000730FE003E30FF002A3014
:100FEC0084000A128A114A270A128A1183010A12F2
:040FFC008A119D2F8A
:04400E00F2EFFFFFCF
:00000001FF
